:020000040000FA
:0600000002124A0207F69D
:03002B00020FAC15
:03003300020BB904
:030053000207257C
:03006B00020B6E17
:03007B00020B97DE
:1000830002078701010000000000F8FF07FFFF00DF
:10009300000D04000000030001FF055EC05EE102E5
:1000A300014882014A820500AD03000000FF581594
:1000B3005E1564150000000000006A1570157615C2
:1000C3007C15821588158E150020FD000206FFFFA2
:1000D300FFFF1E1410270000741D00000000000025
:1000E300000000000000000000000000000000000D
:1000F300FFFF04010400007615000000E803000080
:10010300FFFFC7150188130000E8030000640064C3
:1001130000B801A0BB0D00A0BB0D00020202070442
:1001230001051E02051E020A0A010108080103B89F
:100133000B02803E0102FEFFE8030A050001FFFFF8
:10014300020A011401E0050301010F030003000388
:100153000003000300030003000300030005000A7B
:1001630000140028004F009E000000752F000000BF
:1001730000AB2E00000000FF000000FF0012126918
:10018300604612125A603DE9687008F618F618F6D0
:1001930018F622748067F71201B40909097480679D
:1001A300F72212125A601D1212697005191919806B
:1001B3001A121139701F1210FDC37003E667331949
:1001C300191940071818182208080874FFF618F6BA
:1001D30018F618F6221210FD60171212F77021920A
:1001E300F01213007019501720F0140808080909B9
:1001F30009E7F61819E7F61819E7F61819E7F622CA
:1002030012130060E6E869701F0808E62480F60808
:10021300E436F618547FB47F0CE654806007F6E4A6
:1002230018F618F622181822E9C6CC08C6CD08C657
:10023300CE08C6CFC0E0E8C0E0EAC0E0EBC0E0090A
:10024300E9F809E7FA09E7FBE6F918E6F8C3EC98D9
:10025300ED99EE9AEBC2E7F5F0EFC2E795F0500E99
:10026300600CEBCFFBEACEFAE9CDF9E8CCF8EAA2D1
:10027300E7D2E7FAEB33FB13F5F0EEA2E7D2E7FEA2
:10028300EF33FFC5F013A2E730E601B313C5F0C3A4
:10029300C0E0C0F07F00C39BFB605E9418600F401A
:1002A3001D14601AD0E023F9D0E0F80203868AF027
:1002B300E9486003D2F0E4AFF0FAF9F8803BEB30A1
:1002C300E40D89F0EA6003D2F0E4AFF0F9CAF8EB89
:1002D30030E30D88F0EF6002D2F0AFF0E4CAC9F862
:1002E300EB54076014FBC3EA13FAE913F9E813F8B4
:1002F300EF135002D2E0FFDBEDD0E0C0E030E7398E
:10030300C3E49FFFF5F0EC98FC42F0ED99FD42F059
:10031300EE9AFE42F0D0E0F9D0E0F8E5F0607AE939
:1003230023F9EE20E742D8028067C3EF33FFEC33B3
:10033300FCED33FDEE33FE80EAEC28FCED39FDEEF7
:100343003AFED0E023F9D0E0F84002801BC3EE135D
:10035300FEED13FDEC13FCEF135002D2E0FF08B8DF
:1003630000067F7F74FF802EEF3350178CF020F050
:100373000260100CBC000C0DBD00080EBE0004088A
:10038300E860DFE933E813FFEE2313FE4F4D4C80A3
:1003930008E95480FFE4FEFDFCEE33EF33F4700410
:1003A300FCFD7E80D0E0FBD0E0FAD0E0F8D0E0CFD7
:1003B300C618CEC618CDC618CCC6F92212125A706A
:1003C3000418181822121269700D74FFF61819F622
:1003D3001819F61819F622E7548066F612130070FE
:1003E3000F1212F770F014F608F608F608F680D12B
:1003F3001212F7700CF608F608768008E6447F8040
:10040300EC121100700C12113C60BFE65480F6E44C
:1004130080BB12113C700519191980A5E869700C8D
:10042300763F18768018F618F6E8F922E6CDC0E094
:1004330018ECC0E0E633CD33CDD313F6E719FCE770
:10044300191933CC33C3947F400ECD9D502408E655
:100453005480F6E418F6800FF4043D14501408E6B3
:10046300447FF6187680E418F618F6D0E0FCD0E066
:10047300FD22CCD313CCFD18E4C6CBC0E018E4C6F0
:10048300CAC0E00808ED08C633E613F618E433C61D
:1004930075F003C3CA97CA09CB97CB199C40047D57
:1004A30008802EBD000302056816B6FF0506060880
:1004B3001618C3CA33CACB33CB33CA27CA09CB37BF
:1004C300CB193CC37D08803E187D0820E75CC6330A
:1004D300C6CA33CACB33CB33DDF1D5F0EB30E77B80
:1004E300CA97CA09CB974ACB199C406F4B7025E634
:1004F30020E0218066187D08C3CA97CA09CB97CB31
:10050300199CD3C633C6CA33CACB33CB3350C9DDE8
:10051300E7D5F0E1D3E4C636C608C636C608C63604
:10052300C608C636C61818188031C3CA97CA09CB7D
:1005330097CB199CB34097C633C6CA33CACB33CBC8
:1005430033DD34D5F02EC6A2E0C640C8CA27CA0997
:10055300CB37194A70BECB3CB480B90808E63308E0
:10056300E633601F181818D0E0FAD0E0FBD0E0FCA7
:10057300D0E0FD22187D08CA27CA09CB37CB193C26
:10058300D3808013F618E4B67F11F618B6FF0EF683
:1005930018C60470D20808768080CAF618F618F6D2
:1005A30080C50012125A604F1212696012E754801C
:1005B30066F612113970111212F7703B090909F42A
:1005C300F618F618F618F6221210FD70151213001D
:1005D30008080860EAE6447FF618768018E4F618FF
:1005E300F62212130060161212F77012E4F608F6E0
:1005F30008F608E65480F609090918181822EAC013
:10060300E0EBC0E0ECC0E0EDC0E0E687F0A4FBACBB
:10061300F008E687F0A42CFCE435F0FA1809E68725
:10062300F0A42C4B60027401CA35F0FCE433FB09DF
:10063300E687F0D2F7A42CCB35F0FC1908E687F057
:10064300A42BCC35F0FBE433FD0819E687F0D2E7A1
:10065300A42C4ACB35F0CD3400FC09E687F0D2E771
:10066300A42DCC35F0FDE433FA0918E687F0D2F770
:10067300A42CCD35F0CA3400FC08E687F0D2E7D2CB
:10068300F7A42ACC35F07A7E20E70B0ACB33CBCD07
:1006930033CDCC33CC33CB3350147004ED30E00E78
:1006A300D2F1E4CD3DCDCC3CCC3B5005DA05C2F1D3
:1006B300EB547FC63308E63392F0FBE73309E733A5
:1006C300C39A502D2B70190C0D4C4D70151806E65E
:1006D30008C333700D20F10AA2F013F6E418800B5F
:1006E3004024E4F630F002768018F618F618F68007
:1006F30024D33B14501074FFA2F013F6187680E451
:1007030018F618F6800FA2F013F618E63303F6185E
:10071300ECF618EDF6D0E0FDD0E0FCD0E0FBD0E045
:10072300FA22C0E074F1120B0FA2AFE433F509D241
:10073300AF85A708AFA1EF5508FE74105E600612DF
:10074300179875A1EF74085E600812179E75A1F7DC
:100753008024EFA2E092F0E508A2E082F050179027
:100763006198E0F89004FAE0C398A2D265D03350C0
:1007730002E8F075A1FE752300E509A2E092AF7FC0
:1007830002020C2AC0E074F2120B0FA2AFE433FE94
:10079300D2AF9061A4E0F8759B00E59158540860CE
:1007A300087591F71217EC8023E5915854106008EF
:1007B3007591EF1217F28014E591A2E092F0E8A28E
:1007C300E082F05007E0C2E0F01219489061A3E024
:1007D300F8E5E9585404600E12191E75E9FB90619F
:1007E30093E0A2E640F2752300EEA2E092AF7F0110
:1007F300020C2AC0E074F2120B0FA2AFE433FED254
:10080300AF9061A5E0F8E5BF585404600675BFFBDF
:1008130012196080D112086330F0391208A88034AD
:1008230012086320F01430E72B74FFFCFBFA747F8B
:100833008022E4FCFBFA7480801AB48008BC00F2C6
:10084300BB00EF800F50EBF9E4C39AFAE49BFBE49F
:100853009CFCE499C6CC18C6CB18C6CA18C6F922A4
:10086300E4C9C608CAC608CBC6D3330308CCC6330B
:1008730092F0C3947F402E94184019C9B90704CA53
:10088300CBCC225025C309CA33CACB33CBCC33CC10
:1008930033D9F422F4600DC9CCC313CB13CBCA13E1
:1008A300CAD9F6CC22E4FCFBFA2214FCFBFA22C3DD
:1008B300E498F8E499F91208F38026C3E49AFAE479
:1008C3009BFBE920E7E91208F3E498F8E499F9229D
:1008D300C3E498F8E499F91208F3E498F8E499F971
:1008E300C3E49AFAE49BFB22EB20E7CFE920E7E09D
:1008F300B90010BB0008E88AF084F8AAF022E4FBF0
:10090300C8FA22EB70227B10C833C8C933C93350ED
:1009130007C39AC3DBF280069A50012ADBEAC83385
:10092300F4C8C933F4C9FA2275F008E4C833C8C956
:1009330033C933C99AC99B5004C92AC93BD5F0ECC2
:10094300FBC833F4C8E4C9FA22080808EAC0E0EB9C
:10095300C0E086F0E7A4FA180986F0E7A42AFA189B
:100963000986F0E7A42AFA180986F0E7A42AFA19F7
:1009730086F0E7A4FBE5F02AFA190886F0E7A42B32
:10098300FBE5F03AFA190886F0E7A42BFBE5F03A09
:10099300FA18180986F0E7A4C5F02BFBE43AFA1914
:1009A30008E7C5F0C6A426F6E5F03BFBE43AFA18DF
:1009B30086F0E7A4F6E5F00826F6E43B08F6E43A09
:1009C30008F6D0E0FBD0E0FA22E4CFC0E0E4CEC0EA
:1009D300E0E4CDC0E0E4CCC0E075F020E626F60804
:1009E300E633F608E633F608E633F6181818EC3360
:1009F300FCED33FDEE33FEEF33FFC3EC9709ED97C8
:100A030009EE9709EF97191919400FFFEC97FC09A5
:100A1300ED97FD09EE97FE191906D5F0BFECF7091E
:100A2300EDF709EEF709EFF7191919D0E0FCD0E05B
:100A3300FDD0E0FED0E0FF222521C582C0E0E52203
:100A430034FFC583C0E0E521C3958224F810AF08C5
:100A53008583228582218008858322858221D2AFE6
:100A6300CEF0A3E520F0A37808E608F0A3DEFAEFC2
:100A7300F0A3E58124FAF8E608F0A3E608F0A3E67C
:100A830008F0A30808E608F0A3E608F0A31581150B
:100A930081D0E0FED0E0F8158115811581E8C0E032
:100AA300EEC0E0221212E2B90003020AF9E4900355
:100AB30001786379168002F0A3D8FCD9FA782390E1
:100AC30000867A01BA00028007E493A3F608DAF9F4
:100AD3007A637B1890008778FA79018015E493A3F1
:100AE300AD82AE838A828B83F0A3AA82AB838D828D
:100AF3008E83D8E9D9E775820D7583B17405120F1A
:100B03008E75823875832C7400120F8EC0D0252108
:100B1300C582C0E0E52234FFC583C0E0E521C3956B
:100B23008224F310AF088583228582218008858380
:100B330022858221D2AFC8F0A3E9F0A3EAF0A3EBA8
:100B4300F0A37908E709F0A3D8FAECF0A3EDF0A33A
:100B5300EEF0A3EFF0A3D0E0F0A3D0E0F0A3D0E059
:100B6300F0A3E520F0A3E5F0F0A322C0E074F212B5
:100B73000B0FA2AFE433FED2AFE589547C600312BE
:100B830016D2538983C2C5752300EEA2E092AF7FCC
:100B930001020C2AC0E0C0D0E8C0E0A8A8D2AFE5AB
:100BA3008A858A8AC2EB752300E8A2E792AFD0E078
:100BB300F8D0D0D0E032C0E0C0D0E8C0E0A8A8D2DE
:100BC300AFE58B858B8BC2E880DCE9799EC608CACA
:100BD300C608CBC608CCC6C370207996CACBCC70E6
:100BE30019798ECBCC70137986CC700EF9802ACA12
:100BF30033CACB33CBCC33CC331930E7F2CCCBCAAB
:100C03003350147004EA30E00DE4CA3ACACB3BCB4C
:100C1300CC3CCC500209C3E913C6CC182313C6CB72
:100C230018C6CA18C6F922852283852182E0C0E04E
:100C3300A3E0F9A3E0FAA3E0FBA37808E0F608A396
:100C4300DFFAE0FCA3E0FDA3E0FEA3E0FFA3E0C026
:100C5300E0A3E0C0E0A3E0F5D0A3E0F520A3E0A388
:100C6300F5F010AF088583228582218008858322D1
:100C7300858221D2AFD082D083D0E0F8D0E032E4B5
:100C83007375F0108E248F2585822985832885210D
:100C930082852283E0CEA3E0CF852982852883EB5A
:100CA300C9EAC8EDCBECCAC3E833C8E933C9EA33B0
:100CB300CAEB33CBC3EA9EF527EB9FF526B350046B
:100CC300AB26AA27EC33CCED33CDD5F0DAAE24AF87
:100CD300252212125A601C12126960171213007037
:100CE300071212F77001D322C0D01212F77006D088
:100CF300D0B322C32233D0D0501430E0F6C3E796EA
:100D03000809E7960809E7960809E796B32220E061
:100D1300D5E6970809E6970809E6970809E697B321
:100D230022D083D082ECC0E0EDC0E0E493A3FCE4E6
:100D330093A3FDED4C600D120DFCEC24FFFCED3490
:100D4300FFFD80EFE493A3FCE493A3FDED4C600D62
:100D5300120E99EC24FFFCED34FFFD80EFD0E0FD93
:100D6300D0E0FCE493A3C0E0E493C0E022D083D0BE
:100D730082E9C0E0E493A3C386F0C5F095F0F908D7
:100D8300E493A386F0C5F095F0700BE493A3C399A5
:100D93004005E9048002A3E475F002A42582F582EC
:100DA300E5F03583F583D0E0F9E493A3C0E0E49361
:100DB300C0E022852283852182E0A3FEE0A3F52003
:100DC3007808E0A3F608DFFAE0A3FFE0A3C0E0E0C1
:100DD300A3C0E0E0A3C0E0E0A3C0E0E0A3C0E01054
:100DE300AF0885822185832280088582218583221D
:100DF300D2AFD083D082020F94C0E0C3E4939608AD
:100E03007401939618400FE4936670080874019375
:100E1300661870007019A3A3C3E493960874019332
:100E23009618A3A3400DD0E0D0E0D0E0020D60A35C
:100E3300A3A3A3A3A3D0E0227404800474028000BC
:100E4300CCC0E0EDC0E0E521C39CCCAD2250011D38
:100E530010AF068C218D2280068C218D22D2AF12F9
:100E63000F10D0E0FDD0E0FC2274028000CCC0E083
:100E7300EDC0E0E521C39CCCAD2250011D10AF06AF
:100E83008C218D2280068C218D22D2AF120EEED0C2
:100E9300E0FDD0E0FC22C0E0C0F088F0E49366708F
:100EA300080874019366187000A8F0A3A3700BD010
:100EB300F0D0E0D0E0D0E0020D60A3A3D0F0D0E00A
:100EC30022D083D082CCC0E0E493A36006120F311A
:100ED3001470FAE493A3600612107D1470FAD0E044
:100EE300FCE493A3C0E0E493C0E022CAC0E0E4932F
:100EF300A3C582CCC582C583CDC583F0A3C582CCEF
:100F0300C582C583CDC583DAE5D0E0CA22CAC0E075
:100F1300E0A3C582CCC582C583CDC583F0A3C582BA
:100F2300CCC582C583CDC583DAE6D0E0CA22C0E052
:100F3300E493A3D39C5010E493A3C39C400AD0E052
:100F4300D0E0D0E0020EE1A3A3A3D0E022C008C307
:100F5300E096F50808A3E096420808A3E096420845
:100F630008A3E09645087001D3D008227009080849
:100F730008226016181818C6C333C608C633C60835
:100F8300C633C608C633C6D5E0EA22C09FF59FE440
:100F930073D09F22D083D082C09FE493C0E07401BA
:100FA30093C0E0740293F59F22C0E0C0D0E8C0E094
:100FB300A8A8D2AFC2C7752300E8A2E792AFD0E0DA
:100FC300F8D0D0D0E0322521F58210AF08F52140CA
:100FD3000C15228008F52140021522D2AF85228309
:100FE300227404800A74038006740280027401C0B0
:100FF300E0F404120FC9D0E01212A52200C0D025DC
:101003002110AF08F521500C05228008F52150026C
:101013000522D2AFD0D022BB0102E722C082C08317
:1010230089828A83BB0003E08002E493D083D08269
:10103300226016080808C6C313C618C613C618C606
:1010430013C618C613C6D5E0EA22C3E0C696F6084F
:10105300A3E0C696F608A3E0C696F608A3E0C696F4
:10106300F6222521F8E43522F9222521FAE4352256
:10107300FB222521FCE43522FD22C0E0E493A36C8E
:101083007009D0E0D0E0D0E0020EE1A3A3D0E022CB
:10109300252110AF08F521400C15228008F52140C9
:1010A300021522D2AF22E066701008A3E066700A30
:1010B30008A3E066700408A3E06622C3E796080964
:1010C300E7960809E7960809E796A2D265D0332286
:1010D300E76670100809E766700A0809E766700496
:1010E3000809E76622C3E09608A3E09608A3E09602
:1010F30008A3E096A2D265D03322191919E709474C
:10110300097009E727097005E733F4220922C3E0D0
:1011130096F008A3E096F008A3E096F008A3E09603
:10112300F022C3E697F60809E697F60809E697F66C
:101133000809E697F622181818E60846087009E623
:1011430026087005E633F4220822C3E49396087454
:101153000193960874029396087403939622E026EB
:10116300F608A3E036F608A3E036F608A3E036F661
:1011730022E627F60809E637F60809E637F60809EE
:10118300E637F622700422600D18C6C333C608C6BC
:1011930033C6D5E0F41822E056F608A3E056F60865
:1011A300A3E056F608A3E056F622E657F60809E64A
:1011B30057F60809E657F60809E657F622E026F03F
:1011C30008A3E036F008A3E036F008A3E036F022E7
:1011D300E056F008A3E056F008A3E056F008A3E0B9
:1011E30056F022E647F60809E647F60809E647F609
:1011F3000809E647F622E4C396F608E496F608E4FF
:1012030096F608E496F622600D08C6A2E713C61800
:10121300C613C6D5E0F322C6F4C608C6F4C608C68C
:10122300F4C608C6F4C622C3E09608A3E09608A352
:10123300E09608A3E09622C3E7960809E796080913
:10124300E7960809E7962275D00075813F7521015D
:1012530075220300020AA7E6084608C313460833AB
:101263006002E633F422E7094709C31347093360F1
:1012730002E733F422600C08C6C313C618C613C6AC
:10128300D5E0F422E6F008A3E6F008A3E6F008A30D
:10129300E6F022E0F608A3E0F608A3E0F608A3E0F0
:1012A300F622CAC0E0E6F0A308DAFAD0E0FA22E0B8
:1012B300FAA3E0FBA3E0FCA3E0FD22EAF0A3EBF03A
:1012C300A3ECF0A3EDF022E0F8A3E0F9A3E0FAA386
:1012D300E0FB22E8F0A3E9F0A3EAF0A3EBF022E5B8
:1012E300C754F84401F5C77901222521F582E43575
:1012F30022F58322E72719471947194722E62618BB
:10130300461846184622C2AF75D69F020000221225
:101313000F97E0D502120F9739D902120F97B7DB57
:1013230002120F9763DC02120F9793DC02120F97DE
:10133300F8DC02120F978CDD02120F973FDE0212C8
:101343000F9790DE02120F97D4DE02120F976EDF13
:1013530002120F97DBDF02120F970AE002120F97B8
:1013630010E102120F9734E102120F9788E1021283
:101373000F975CE202120F9787E402120F9735E58D
:1013830002120F97AAE702120F972FE802120F9784
:10139300A6EA02120F97DCEC02120F9720ED02125D
:1013A3000F9779EE02120F978CEE02120F97D1EE80
:1013B30002120F979DF002120F97A0B703120F9717
:1013C300DFB703120F974BB803120F97D1B803126D
:1013D3000F9753B903120F97B6B903120F972DBB8B
:1013E30003120F970FBD03120F97D1BD03120F976F
:1013F30092BF03120F9722C103120F9722C2031247
:101403000F977AC203120F974EC303120F9716C496
:1014130003120F972EC503120F9729C603120F97B6
:1014230091C703120F9774CA03120F978FCB03123E
:101433000F97D2CC03120F97B3CD03120F9759CF47
:1014430003120F97FCD003120F97D7EC01120F97DB
:10145300F4ED01120F9749EE01120F979BEE011263
:101463000F970AEF01120F9706F001120F978FF0F3
:1014730001120F97C1F001120F97E8F001120F97B5
:101483000FF101120F9771F101120F9743F201123D
:101493000F97D5F201120F9706F401120F9732F44A
:1014A30001120F9739F401120F978EF401120F975F
:1014B300BBF401120F9779F501120F97C1F50112D1
:1014C3000F97EAF601120F972AF701120F976BF79E
:1014D30001120F97A7F701120F9794F801120F97B4
:1014E300B9F801120F97DFF801120F9720F90112D3
:1014F3000F973BF901120F9795F901120F979CFB78
:1015030001120F97E2FB01120F9710FC01120F97C4
:1015130074FC01120F9791FD01120F9700800312C3
:101523000F976A8003120F97748003120F976981D4
:1015330003120F97D88103120F97538203120F9749
:10154300BE8203120F97298B03120F977C8B031212
:101553000F97B28D03120F97C58D03120F97988EB5
:1015630003120F97E28E03120F97328F03120F9716
:10157300949003120F97109103120F97B6920312D0
:101583000F97AF9403120F97F89403120F977B955D
:1015930003120F97049603120F972B9603120F97BC
:1015A300BF9603120F97F79703120F97E999031248
:1015B3000F97549C03120F97E2BE05120F97FDBEBF
:1015C30005120F9739BF05120F97B3BA04120F977D
:1015D3002FBB04120F9762BB04120F9790BB041228
:1015E3000F97CEBB04120F970BBE04120F972ABEA0
:1015F30004120F976FBE04120F9705BF04120F97C3
:1016030051BF04120F97E5BF04120F97BEC0041217
:101613000F971AC104120F9778C104120F97EBC1E9
:1016230004120F972FC204120F9787C204120F9749
:10163300A9C204120F9739C304120F97CAC3041225
:101643000F9716C404120F9742C404120F9783C452
:1016530004120F9719C604120F9705C704120F97A8
:10166300E0C704120F972BBB05120F973CBB051263
:101673000F97DABB05120F97E5BB05120F97FFBB58
:1016830005120F97F4FF01120F97D6FF03120F975E
:101693000EBC05120F971EBC05120F9733BC051223
:1016A3000F97E7BC05120F97F6FE04120F977AFF08
:1016B30004120F97E2FF04120F97F2B205120F976D
:1016C3001AB305120F973DB305120F97B2B3051264
:1016D3000F97FCB305120F9727B405120F973EB46B
:1016E30005120F97F19905120F97FF9905120F979E
:1016F300789A05120F97519B05120F97149D0512A7
:101703000F97599D05120F977E9D05120F97F87F2E
:1017130000120F9700AF05120F9738AF05120F97FE
:1017230086B005120F970AB105120F97F7860512B7
:101733000F97238705120F978D8905120F97CD8970
:1017430005120F97098A05120F971D8A05120F9725
:10175300368A05120F97288B05120F97DB8B05121C
:101763000F97EF8B05120F973DFE02120F9761FE45
:1017730002120F977AFE02120F97B8FE02120F970A
:10178300E8FE02120F9715FF02120F971FFF0212B6
:101793000F9785FF02120F9788FF02120F9792FF90
:1017A30002120F979FFF02120F971BAA05120F97A2
:1017B3003BAA05120F977AAA05120F9798AA05124A
:1017C3000F97B3AA05120F9719AB05120F9725AB05
:1017D30005120F9782AB05120F9791AB05120F9766
:1017E300B5AB05120F9776AC05120F9783AC0512B4
:1017F3000F9794AC05120F977CBF05120F97C4BFC8
:1018030005120F97F0BF05120F97458C05120F971E
:101813009F8D05120F97AD8D05120F97C08D051281
:101823000F97D58D05120F97EA8D05120F97FD8D32
:1018330005120F97798E05120F97DE8E05120F97FB
:10184300668F05120F97DE8F05120F97B79005125B
:101853000F97C79005120F97D69005120F9749BEA1
:1018630005120F976DBE05120F9795BE05120F97C0
:10187300BDBE05120F979CFD01120F97C3FD011208
:101883000F97E1FD01120F9750FE01120F9748A722
:1018930005120F9761A705120F976DA705120F97F2
:1018A30081A705120F979FA705120F97A9A70512E6
:1018B3000F97B3A705120F97C6A705120F974CA84A
:1018C30005120F97C1A805120F97F0A805120F97DD
:1018D3003EA905120F978DA905120F97A8A9051206
:1018E3000F97B2A905120F97C3A905120F9706AA5E
:1018F30005120F9770C005120F97BBC005120F9703
:1019030008E804120F9734E804120F9751E8041201
:101913000F9764E804120F977FE804120F97D9E832
:1019230004120F9707E904120F9717ED04120F978C
:1019330075EE04120F97A7EE04120F970AEF041225
:101943000F9776F004120F979EF004120F97B3F0DF
:1019530004120F97C3F004120F9703F104120F97A9
:1019630045F104120F9755F104120F97FBB60512B8
:101973000F9715B705120F973DB705120F9756B777
:1019830005120F977AB705120F9798B705120F979D
:10199300AFB705120F97DDB705120F97F8B705120A
:1019A3000F97EDBC05120F9731BD05120F97919D4F
:1019B30005120F97A19D05120F97A69E05120F976B
:1019C300D89E05120F97089F05120F972B9F05129C
:1019D3000F97429F05120F977C9F05120F97E19F68
:1019E30005120F9723A005120F976AA005120F97F0
:1019F30097A005120F97C2A005120F9754B40512B2
:101A03000F9766B405120F977AB505120F977DB538
:101A130005120F973DBA05120F9773BA05120F9768
:101A23008BBA05120F97CDBA05120F97DDBA0512BF
:101A33000F9721BB05120F97008005120F97438064
:101A430005120F97A88005120F97C78005120F97ED
:101A5300698105120F97728105120F97C3810512D1
:101A63000F97EC8105120F97F98105120F976B827F
:101A730005120F97F98205120F973E8305120F97F0
:101A8300778305120F97DC8305120F9705840512E0
:101A93000F977C8405120F97CB8405120F97088547
:101AA30005120F973D8505120F974F8505120F9766
:101AB300618505120F97808505120F978985051299
:101AC3000F974A8605120F978D8605120F97CB86BF
:101AD30005120F97AAB505120F97EAB605120F97CD
:101AE300A9FF02120F97C2AC05120F97F8AC0512AB
:101AF3000F9740AD05120F9799AE05120F972F96CA
:101B030004120F97559704120F97919704120F978A
:101B13004F9904120F977D9904120F97E79B0412B4
:101B23000F97279C04120F97C99D04120F975F9E6E
:101B330004120F97B99E04120F97499F04120F972F
:101B43008D9F04120F97CF9F04120F9734A1041295
:101B53000F97B4A204120F97F5A404120F9723A5AD
:101B630004120F974FA504120F9758A504120F974D
:101B7300B5A504120F974EA604120F9765A9041278
:101B83000F97EBA904120F979FBD05120F97B7BDCF
:101B930005120F97C1BD05120F9717BE05120F97B8
:101BA300819505120F97979505120F973896051291
:101BB3000F97779605120F97949605120F97C59670
:101BC30005120F97129705120F97469705120F9755
:101BD300819705120F977E9905120F97E4990512C5
:101BE3000F973DB905120F979CB905120F97DAB9F4
:101BF30005120F971BBA05120F9785F104120F9761
:101C03009BF104120F974FF204120F977EF3041205
:101C13000F9744F404120F97E1F404120F971CF585
:101C230004120F972CF504120F9753F504120F9714
:101C3300A5F504120F970EF704120F9713F704126A
:101C43000F9735F704120F97BEBF01120F97CABF44
:101C530001120F972CC001120F9736C001120F9774
:101C6300C5C001120F9701C101120F97F3C10112F1
:101C73000F9706C201120F9763C201120F97F1C2A9
:101C830001120F9742C301120F97C2C301120F979C
:101C9300A6C501120F97ABC701120F97A5C8011272
:101CA3000F97D7C901120F9729CC01120F976CCD4B
:101CB30001120F9711CE01120F9708D301120F973C
:101CC300FED301120F9794D401120F97B9D40112C6
:101CD3000F9756D501120F9773D501120F9793D50E
:101CE30001120F9701D601120F971ED601120F97FB
:101CF3004CD601120F97E4D701120F9705D80112A2
:101D03000F97ABD801120F97F3D801120F9753D93E
:101D130001120F97FAD901120F975FDA01120F9789
:101D2300C4DA01120F9775DB01120F97E4DB01127E
:101D33000F971FDC01120F9793DC01120F97DEDD63
:101D430001120F976EDF01120F970DE001120F972B
:101D53004DE201120F97AFE201120F97DDE201127C
:101D63000F97F6E401120F97A3E701120F97B6E856
:101D730001120F972CDE04120F973ADE04120F970D
:101D83005BDE04120F977ADF04120F97A1DF0412B0
:101D93000F97BCDF04120F978FE004120F974DE3E8
:101DA30004120F977AE404120F979BE404120F971F
:101DB30026E504120F9786E604120F97B9E604127C
:101DC3000F97DEE604120F976DE704120F97F2E701
:101DD30004120F97FDE704120F972BB805120F9704
:101DE300E7B805120F970DB905120F970AF90412F8
:101DF3000F9797F904120F9710FA04120F97ABFA83
:101E030004120F97FBFA04120F97CFFB04120F97DC
:101E130048FD04120F97307F00120F9728EA031230
:101E23000F9757EA03120F97CFEA03120F97DEEBD0
:101E330003120F973AEC03120F97C0ED03120F979B
:101E4300DCED03120F972EEE03120F9771EE0312C0
:101E53000F9784EE03120F97DCEE03120F979EEF9A
:101E630003120F971AF003120F9751F003120F97F3
:101E730089F003120F971BF203120F97FAF2031262
:101E83000F9748F403120F972BF503120F97B7F52B
:101E930003120F97F7F503120F9716F603120F9716
:101EA30061F603120F9777F603120F978EF603125C
:101EB3000F9727F703120F97ADF703120F9708F841
:101EC30003120F97F9D904120F97DEFA03120F9733
:101ED300F7FB03120F973DFC03120F9732FD03121A
:101EE3000F975AFD03120F975DFD03120F9767FDBE
:101EF30003120F9783FD03120F97FDFD03120F9734
:101F030036FE03120F9752FE03120F977EFE031243
:101F13000F97A5FE03120F97C9FE03120F973AFFFF
:101F230003120F974DFF03120F9767FF03120F97CB
:101F330088FF03120F97B7FF03120F97F3BF051222
:101F43000F9734D502120F9733C005120F97F1FF85
:101F530001120F97008004120F97238004120F972A
:101F6300708104120F97B98104120F97258204120E
:101F73000F97838204120F97868204120F97D782DA
:101F830004120F974C8304120F97D18304120F97F7
:101F9300D48304120F97558404120F979684041266
:101FA3000F97828804120F972C8A04120F977C8A4A
:101FB30004120F97038E04120F97368F04120F9794
:101FC300B09004120F974D9104120F973892041298
:101FD3000F978D9404120F974AAA04120F97F4AA2D
:101FE30004120F975FAB04120F977AAB04120F978B
:101FF300FFAB04120F9759AC04120F97A0AC041255
:102003000F9707AD04120F9786AE04120F97B5AF63
:1020130004120F973DB004120F9746B204120F97A4
:10202300F3B204120F9797B304120F9768B4041214
:102033000F9723B604120F97BBB704120F974EB82E
:1020430004120F9774B904120F976D9C03120F9724
:10205300D09C03120F97189D03120F975C9D0312D8
:102063000F97B79D03120F97149E03120F974F9E5E
:1020730003120F97D19E03120F972B9F03120F97F3
:10208300A9A003120F9729A103120F9784A103128A
:102093000F979EA103120F97BFA103120F9719A2C7
:1020A30003120F9795A403120F97B4A403120F976B
:1020B300A4A503120F97D7A603120F9756A70312CF
:1020C3000F9792A703120F9701A803120F97B6A8B1
:1020D30003120F978EAA03120F9795AB03120F9754
:1020E3000DAD03120F9703AF03120F9779B10312CC
:1020F3000F9753B303120F9714B403120F978CB4B3
:1021030003120F97A3B403120F979AB503120F97F5
:102113008EB603120F97FDB603120F9756A405123E
:102123000F97ADA505120F976CA605120F97D4A6AE
:1021330005120F971AA105120F9735A105120F97D4
:1021430079A105120F979FA105120F97C6A105123A
:102153000F97DEA105120F9780A205120F9795A284
:1021630005120F97AAA305120F97C5A305120F9780
:10217300CEA305120F97D7A305120F97E0A305125D
:102183000F97EAA305120F9710A405120F97079153
:1021930005120F97139505120F97189505120F97B0
:1021A3001A9505120F977FB105120F97C7C0051235
:1021B3000F97FEAC02120F9731AD02120F979DAD30
:1021C30002120F9738AE02120F97D5AE02120F9775
:1021D3001AAF02120F973CAF02120F9755AF0212BC
:1021E3000F977BAF02120F979DAF02120F97DBAFD2
:1021F30002120F971FB002120F9741B002120F97EE
:10220300A3B002120F976AB102120F9721B2021202
:102213000F9793B202120F975EB302120F97B1B3E7
:1022230002120F9717B402120F9751B402120F97AD
:10223300A3B402120F9711B502120F977CB50212C5
:102243000F977FB502120F9700B602120F9797B63A
:1022530002120F97F8B602120F97E8B702120F9700
:1022630007B802120F976BB902120F9778B90212CF
:102273000F9784BA02120F9791BA02120F979ABA64
:1022830002120F9772BC02120F978CBD02120F97A6
:1022930005BE02120F9777BE02120F9799BE021264
:1022A3000F972DBF02120F9701C102120F97D8C4C7
:1022B30002120F97ECC402120F97FCC402120F977D
:1022C30006C502120F970FC502120F9718C5021207
:1022D3000F9722C502120F974FC502120F9778C5A9
:1022E30002120F9783C502120F97A7C502120F9709
:1022F300CBC502120F9735C602120F977BC6021287
:102303000F9798C602120F9715C702120F974CC763
:1023130002120F978BC702120F97D8C702120F979B
:102323005EC802120F972CCA02120F97C1CA02127B
:102333000F97A5CB02120F970CCE02120F9765CE03
:1023430002120F97AFCE02120F970AD002120F9705
:1023530048D002120F979AD002120F974FD1021250
:102363000F97FED102120F973BD202120F97D0D2D2
:1023730002120F973CD302120F97483200120F97A5
:102383007A3200120F97A83200120F977E34001290
:102393000F975E3500120F97B63500120F97F1367F
:1023A30000120F973D3700120F97663A00120F97EE
:1023B300593D00120F97A93E00120F973F3F00129D
:1023C3000F974B3F00120F977D3F00120F9700416D
:1023D30000120F97B14200120F97454300120F9757
:1023E300884300120F97064400120F9723440012EC
:1023F3000F97534400120F97884400120F975845C4
:1024030000120F97014600120F97874800120F978B
:10241300A74900120F97924A00120F97144B00120C
:102423000F97484F00120F97854F00120F97DD4FFC
:1024330000120F97105000120F977A5000120F9747
:10244300B05000120F973B5100120F979351001297
:102453000F976A5200120F97235300120F97BE5320
:1024630000120F97C65600120F97E25700120F97EC
:10247300855B00120F97795C00120F977C5C00124A
:102483000F97AB5C00120F97B15E00120F978A5F34
:1024930000120F97CD5F00120F97236100120F9761
:1024A300626100120F97EB6100120F971F62001217
:1024B3000F97E46200120F97FC6400120F976D658B
:1024C30000120F97AD6500120F973B6600120F972E
:1024D3005D6700120F971F6800120F97266A00129C
:1024E3000F973E6A00120F97526A00120F978A6A7B
:1024F30000120F97B86A00120F97376C00120F97EC
:102503005C6D00120F97B96D00120F976B6E00127E
:102513000F97926E00120F97596F00120F97F16F7A
:1025230000120F97177200120F974C7200120F9739
:10253300AF7200120F97DE7300120F9786740012AA
:102543000F97B77400120F97CF7400120F975E7531
:1025530000120F97127800120F97EA7900120F9763
:10256300067A00120F97227A00120F97F07A001260
:102573000F97E37E00120F97F17E00120F9756829A
:1025830001120F97888201120F97778601120F9716
:10259300C38601120F97098701120F97AB870112A8
:1025A3000F97078801120F974C8801120F97938991
:1025B30001120F97A78A01120F97968E01120F9798
:1025C3001A8F01120F97279001120F978390011210
:1025D3000F97739201120F97E89201120F97F292DD
:1025E30001120F97FF9201120F972A9301120F976F
:1025F300119401120F97BB9401120F973995011291
:102603000F975E9501120F97879501120F97A99562
:1026130001120F97099801120F97CF9801120F9784
:10262300149901120F97919901120F97429A01126F
:102633000F97749A01120F97BA9A01120F97F69A8D
:1026430001120F97469B01120F979A9B01120F9746
:10265300F09B01120F973C9C01120F97A99C01124A
:102663000F97249D01120F97EF9E01120F97EF9F73
:1026730001120F9714A101120F9753A401120F9780
:1026830066A701120F9723A801120F9767A80112DB
:102693000F9717AA01120F972BAA01120F9735AAAA
:1026A30001120F973FAA01120F974BAA01120F971E
:1026B30067AA01120F9712AB01120F9751AB0112C8
:1026C3000F975BAB01120F9765AB01120F97D5AB59
:1026D30001120F9720AC01120F9735AD01120F971E
:1026E30091AD01120F9712AE01120F97D1AE0112E5
:1026F3000F97DAAF01120F970EB101120F97FCB1CA
:1027030001120F9714B201120F976FB201120F97B4
:1027130079B201120F9797B201120F97DFB201122C
:102723000F9706B301120F97A1B301120F9767B466
:1027330001120F97F9B401120F9773B501120F9796
:102743008DB601120F973AB701120F97B6B7011260
:102753000F97C4B801120F9714B901120F9778B9E4
:1027630001120F97DAB901120F9708BA01120F97E6
:102773002CBA01120F9761BA01120F9792BA011284
:102783000F97C5BA01120F97E5BA01120F974DBB08
:1027930001120F9741BC01120F979CBC01120F97B6
:1027A300C5BC01120F974DBD01120F97D0BD011289
:1027B3000F97FBBD01120F97E0BE01120F97BAC826
:1027C30004120F97F2C804120F9713C904120F973C
:1027D30055C904120F97B7C904120F97C1C9041240
:1027E3000F97D1C904120F970CCA04120F973ECA50
:1027F30004120F971ECE04120F970BD004120F97DB
:10280300F1D104120F9788D204120F972AD304121E
:102813000F97248102120F97A28102120F97FE8154
:1028230002120F97498202120F97648202120F97C6
:102833008F8202120F97AC8202120F97B882021294
:102843000F974F8402120F97688402120F97ED843B
:1028530002120F97008502120F971F8502120F971E
:10286300C38502120F97448702120F97F78802124B
:102873000F978D8902120F97908902120F97008A82
:1028830002120F971E8A02120F97B58A02120F9730
:10289300FD8A02120F97008B02120F97C68B02124A
:1028A3000F97338C02120F97598C02120F97E48CF7
:1028B30002120F97028D02120F97488D02120F9783
:1028C300FC8D02120F97468E02120F97758E02121D
:1028D3000F97D28E02120F97078F02120F97338F23
:1028E30002120F97418F02120F978E8F02120F97CA
:1028F300FE8F02120F97479002120F9793900212C6
:102903000F97BF9002120F97CA9002120F97E89089
:1029130002120F97D39102120F97DD9102120F97B4
:10292300189202120F97289202120F9731920212F5
:102933000F97859202120F97999202120F97C893DD
:1029430002120F97DB9302120F97F29302120F9763
:10295300079402120F97959402120F97DA940212BA
:102963000F97669502120F97719502120F97B39600
:1029730002120F97CE9602120F971A9702120F9711
:10298300899702120F97C29702120F97DC970212D0
:102993000F971E9802120F97EE9A02120F979B9BA6
:1029A30002120F97089C02120F97489E02120F976C
:1029B300609E02120F97639E02120F976F9E021280
:1029C3000F97839E02120F978B9E02120F97BE9E44
:1029D30002120F97C09F02120F9747A002120F9780
:1029E300B7A002120F9739A102120F97FAA1021290
:1029F3000F9719A202120F97BAA202120F9717A3E9
:102A030002120F971AA302120F9747A302120F97EE
:102A13005CA302120F97D0A302120F971FA50212F5
:102A23000F9725A602120F97B0A602120F97CBA7F6
:102A330002120F9793A802120F97C4A802120F97BE
:102A4300E7A802120F97F0A802120F971FA902120C
:102A53000F97AFA902120F9765AA02120F97DAAA6E
:102A630002120F9781AB02120F97F6AB02120F9768
:102A73002DAC02120F976BAC02120F97A1AC02128E
:102A83000F9756D904120F9756D804120F976FD782
:102A930004120F975FD504120F976DD404120F978A
:102AA3000BD404120F9714EA03120F97E5E90312EC
:102AB3000F97DBE903120F9770E903120F97A1E752
:102AC30003120F9791D402120F974BD402120F9750
:102AD3005FE703120F9763E603120F9716D40212F0
:102AE3000F97E3D302120F9737E603120F97EEE522
:102AF30003120F972FE503120F971BE203120F9791
:102B03008DDF03120F975ADF03120F9701DF0312B2
:102B13000F9794DE03120F9753DE03120F978CDD8A
:102B230003120F9726DD03120F97C5DC03120F97CD
:102B330065DC03120F973CDB03120F97D0DA031205
:102B43000F9728DA03120F9723DA03120F9717DA76
:102B530003120F974AD603120F9718D603120F9733
:102B6300CED302120F97A3D302120F97E6DD0412FE
:102B73000F97B2DD04120F975BDD04120F97C9DBC9
:102B830004120F971BDB04120F97C2D503120F9782
:102B930063D503120F9724D503120F9707D503129A
:102BA3000F977EDA04120F97FCD403120F97CBD43E
:102BB30003120F97ADD203120F9720D203120F9770
:102BC30074DA04120F97DCD103120F97FFBF0512BB
:102BD3000F97ADD103120F97D7FD02120F97AAFDDE
:102BE30002120F9781FD02120F9759FD02120F97E0
:102BF300F0FC02120F97D0FC02120F979BFC0212FB
:102C03000F970FF902120F97F3F602120F97DAF4E8
:102C130002120F974DF402120F9703F402120F974B
:102C2300B1F302120F970DDA04120F9754F2021246
:102C33000F9748F80300000080FB8F000100211963
:102C4300870001001F1935000400E8182500020061
:102C5300EC1826000200EE1827000200F0182800E6
:102C63000100FA1829000100FB1884000400521621
:102C73008600010071182A000100FC182B000100D6
:102C8300FD182C00010001192D0008005E162E000E
:102C9300010002192F00010003193000010004197B
:102CA30031000100051932000100661633000100EE
:102CB3006716340001000619360001006816380053
:102CC30001000719390001000019830002001D19D2
:102CD30063000100751664000100FE186500010021
:102CE300FF186D0001007616710008005616660085
:102CF30001001C19430001000D19440002000E19C4
:102D03004500010010194600020011194700080090
:102D13006D164800010013194B000100141904003B
:102D230001002019A1000100241937000100231913
:102D33008800010022193C00010069163D000100D2
:102D430008194900020015196700010077164D00A4
:102D5300020017194E00010019194F0002001A1939
:102D63003E0001000C19510001006A1652000100D7
:102D73000A19530001000B19540001006B160000DF
:102D830000000000000136360101000102010001CC
:102D930003010001040106060502000007010034D7
:102DA3000801000F090401010D0100FF0E080000D6
:102DB30017020000190100FF1A0100011B0100FEA8
:102DC3001C0100081D0200001F0100012001000179
:102DD300210200002301000F24020000260100014C
:102DE30027010008280200FF2A0100072B010240E7
:102DF3002C0100002D0100012E0100012F0100FF15
:102E030030010B1D310800003A0100083B01000F9F
:102E13003C0100013D0100FF3E04000042040000AC
:102E2300460400004A0400004E040000520400005F
:102E3300560400005A0400000000000020015582DF
:102E43000000010020015082000002002001528294
:102E53000000030020015482000004004201388175
:102E63000000050042011D81000006004201CC80E4
:102E7300000007003001538200000040200150820F
:102E83000000FDFF21014C82010020002005CF1826
:102E9300010021002005D01807000000302316157B
:102EA300070010003023121501037103010301030E
:102EB30001030103010322030203010310030003BF
:102EC30000030003000300030003000342030003A5
:102ED300240306030003000304031203250323034F
:102EE3002503230304030403000300030003440333
:102EF300000300032303000365032100350381035B
:102F03000003050300030003000300032503230359
:102F130001017101010101011101010131010101EE
:102F230001018001100161013B0014006301730181
:102F33007201620143010001130106013D013500E5
:102F43000401120100010001000100010401040158
:102F5300330133013C014401320136000001000119
:102F63006501000135008101000105018201830132
:102F73000001030071003001600011007000310294
:102F8300200350048000100061000000140063005F
:102F9300730072006200430000001300060000008B
:102FA3000000040012000000000000000000040004
:102FB3000400370037003C0244000000000000001A
:102FC30000006500000035008100000005000000DE
:102FD30083000000030271023001600211027002DB
:102FE3000102020202028002100261023A00410061
:102FF3006302730272026202430200021302380088
:103003000002000204021202000200020002000297
:1030130004020402370037003C0244020002390074
:10302300000200026502000235028102000205026D
:1030330082028302000236000100060000000F0036
:1030430000000000000000000000000003FFFF007C
:10305300000403FFFF0000FFFF0FF4010005C40499
:103063000320000100000B0000000000000000032B
:10307300010F00000000000000000000000000003D
:10308300000000000000000000000000000000003D
:1030930000000000321D5C1D381D661C3E1D621DB4
:1030A3003E1D6E1D441D661C3E1D621D4A1D661C91
:1030B30000000000501D661C00000000000000001E
:1030C300561D661C00000000000000000000000008
:1030D30000000000000000000000000000000000ED
:1030E30000000000000000000000000000000000DD
:1030F30000000220010002200200781F0280721FDC
:1031030003007E1F0400841F04808A1F0500901F94
:1031130006009C1F3100AE1F3300B41F3400BA1FDA
:10312300FFFF0000030003000400080010001F005D
:103133003E007B00F600EC01D703AF075D0FB91E1D
:10314300713D000007ECFDFDFDECDCDCCCBCACAC60
:103153009C9C8C7C7C6C6C5C5C5C4C4C3C3C2C2C5C
:103163001C1C03EAF5E5D5D5C5B5A59595858575EB
:1031730075656555554545353525251515050AF6F6
:103183002502C02505CC2507C6250CA8250DB42589
:10319300FF000000160F00000B150B020002220FA8
:1031A3003300000E0F07000000302317150700102F
:1031B3000030231315D0D1D2D3D4D5D6D7D8D9DA6A
:1031C300DBDCDDDEDF5A6967426565416C6C696192
:1031D3006E63653039303016181920231A1C1E30DF
:1031E30000034D4C4651181A250502000119161803
:1031F300161618230300303017181921301B1D1F12
:1032030030003C40423A3F3F392F47300C0E020B0F
:10321300040B0A0708000F0204020101010109025D
:10322300E803000000BE040A0E0001000300E803E7
:10323300FF04090E031E1E03100C04080828020CC9
:103243000508150A04C082C0831215CA9016A0741B
:1032530092F0A37423F09016A27498F0A37423F051
:103263009016A4749EF0A37423F09016A674A4F091
:10327300A37423F0025F8374F7120A3B901694E45D
:10328300F0E9901693F07C6D7D167A957B16121BF0
:10329300F4901913E090169DF090169E7456F0A3C7
:1032A300741602421074F0120A3BEAFEEBFF5480DC
:1032B30070030234199016931242A570030234125C
:1032C300EA241B125B10707CEA241F125B10641348
:1032D3007002A3E0706E8A828B831234679016AEFD
:1032E3001250A2750A00750B00800D1240E6127190
:1032F30082121AF8AA0EAB0FEA4B60488A828B83BC
:10330300E0650C7004A3E0650D702C8A828B83A3A7
:10331300A3A3A3E0F50EA3E0F50FE50A450B8A820C
:103323008B83A3A3A3A360C31243E8850A82850BFF
:1033330083A3A3A3A380B78A0A8B0B8A828B8312EE
:10334300509E80B4E508242A125B10FCE508240291
:10335300F8E43509F9E8FAE9FB9016AE12354EA305
:10336300A3E06402703C8A828B831250A2800B8894
:10337300828983A3A3A3A31243E8E849601F888239
:103383008983E06A7003A3E06B70E488828983A376
:10339300A3E06C70DA901919125E40806BECF9129D
:1033A30023CE850882850983E06401704FE50824F4
:1033B30018123450120FF012672A120E3BE508243C
:1033C30012123450120FF0E508124299120FECE575
:1033D30008240B12672E120E3FE5082417124236FB
:1033E300E5082402FCE43509FDE5082419FAE4356F
:1033F30009FB122C0E740A120FFF800CE06402709A
:1034030007AA08AB091224ACAA08AB09121A5CEE8E
:10341300FAEF6480802DEA5402600C90192874013D
:10342300F0EA6402FA8023EA5408601A1223C8EA15
:103433004B700B9016B01266057A0812345DEE6479
:1034430008FAEFFB80047A007B00026DB4F582E496
:103453003509F583E0F50A780A22FB901693E0F923
:10346300121BC422A3A3E0F50CA3E0F50D227B00FD
:10347300901693E0F9121BB874042274F4120A3BF9
:103483008A088B098A828B83A3A3A3124E9A1242C2
:103493004138F583E02409FA126D4C70030235417B
:1034A3008A828B837402124F0F85088285098312E7
:1034B300354EE8F0A3E91269C68A828B83A3A3A3DE
:1034C300A3A3A3A3A3F0E5082403F8E43509123565
:1034D300431242413AF583E08E828B83A3A3A3A3D5
:1034E300F0EE2409FAE43FFB8E828F83A3A31260DC
:1034F300F2F5838882E0A2E58E828F83A3A3A3A340
:10350300A3500474018001E4F0E5082403F58289E3
:10351300831250A2EA1256233BF583126D13120F46
:10352300E81242403B1261E48E828F83A3A3127E92
:10353300C2120FFFEEFAEFFB901693126D998016ED
:10354300F98882F583E0FAA3E0CA2212523FA3A3CB
:10355300227402120FFF7F04020DB674F2120A3BAB
:103563008A088B09ECFAEDFB740E1212EDE0FC12E3
:1035730016008A0C8B0DAE0CAF0DEA4F6030AC0811
:10358300AD091215EEE96026AC08AD09EEFAEFFBC2
:103593001215F4E970148E828F831243D5FAEFFB70
:1035A3001215E8AA08AB091216187900800279B43B
:1035B30002518E74F0120A3B74F6121093EAFEEB7A
:1035C300FF8C088D09750FB3852182852283E4F072
:1035D300750E008002050E90323EE493F8E50EC3AB
:1035E3009840030236DDAA0E7B0012163C8A0A8B32
:1035F3000BEA4B60E08A828B83A3A31236E428F0A4
:10360300F8C3EE98EF940050CC7C157D007900AAA6
:1036130008AB09121A44850A82850B83A3A3A3A3CB
:103623001271BFE0F8EEC3982925E0F8E433F9E519
:103633000A28F582E50B39F583A3A3A3A3A3A31259
:10364300424BA3125C678A0C8B0DAC0CAD0DAA0820
:10365300AB09121BF4850A82850B83A3E064017016
:103663000A12672A740112425D80447401121075B4
:10367300850A82850B831250A0121624E9603D74DB
:10368300091212EDE0C0E012672AD0E0F0740912CB
:1036930012EDE0640370137401121075E508240B36
:1036A300FAE43509FB121BF4801274011212ED12B5
:1036B30043E8E508125C4D3509127180850A82855D
:1036C3000B8312673612425DA3A3E0C0E0E5082432
:1036D3001412672ED0E0F0750F00A90F740A026D63
:1036E300B1A3A3A3E0F8852182852283E02274F7A6
:1036F300120A3BE9FE8A828B83A3A3A3A3A3A3E0BD
:10370300540860338A828B83A3A3A3A3A3A3E054A7
:103713000260218A828B83A3A3A3A3A3A3A3A3A34E
:10372300E06406600F74E96E600A74CD6E60057420
:10373300F06E70031223B0024A8D74F0120A3B74C8
:10374300EF121093740F1212ED1264E9740812123F
:10375300EDE9F0ECFEEDFF74051212ED124855127F
:103763004A79A3E0F912160C74061212ED1264E9F9
:1037730074061212ED1256B470030239F812428520
:10378300E0FA74061212EDE0F91222F0123A58F838
:10379300A3E0F9E84970030239F8EE2403F50AE4DB
:1037A3003FF50BEE2406F508E43FF5097C00850898
:1037B30082F5831250A2850A82850B83E0F91216E3
:1037C3001274031212ED1264E9850A82850B83E0F9
:1037D300C0E0852182852283123A51D0E01257C975
:1037E300F98521828522831240ED12531B1236E79D
:1037F300FAA3E0CA2407F582E43AF583E8F0A3E4E8
:103803001264F42406F582E438F583E412718C1211
:103813004E8E120FE8EE1242413F1261E47403121E
:1038230012ED124E9A2409127EBC120FFF74291254
:1038330012ED1271B91235481257DC3A12718074C5
:103843002B1212EDE0C0E085218285228312567B84
:10385300D0E0F074021212EDE4F074251212ED7848
:103863000812129602394F74031212ED1261AC88DA
:1038730082F583123A40A3A3A3125C72FB12162AA9
:10388300850E82850F83A3EAF0A3EBF07403121273
:10389300ED123A51A3123A40125E81A2E6500F850F
:1038A3000E82850F83A3A3A3A3A3E0D2E1F0740543
:1038B3001212EDE0706B850E82850F83A31243E82D
:1038C3009016EEE0687003A3E0697055850E82855B
:1038D3000F83A3A3A3124220750C00780C120FF0E0
:1038E3007808120FE474291212EDE0F50C780C122B
:1038F3000FF074271212ED120E3F9016FB120E3FBB
:10390300790074191212ED1250721224F4740A120F
:103913000FFF850E82850F83A3A3A3A3A3E0440512
:10392300F074021212EDE004FC8E828F8312509C1D
:103933008E828F83A3A3A3E0F912161274031212CB
:10394300ED1264E974021212EDE004F07403121232
:10395300ED1256B4606774021212EDE0FA740612A7
:1039630012ED1243E8C3EA98E4995051740212121B
:10397300ED123D2A852182852283E028F8A3E039D0
:10398300F9E8240FF50EE439F50F850E82F583E48B
:10399300F074031212ED123A4B6401600302386AA9
:1039A30074051212ED7401126D9FF074031212ED7F
:1039B300125F73123D4DE8F0A3E902388E85218230
:1039C3008522831250A21222F68521828522831238
:1039D3000E3F74261212EDE0FD74251212EDE0FC89
:1039E300740A1212EDE0F9EEFAEFFB1223AA740245
:1039F300120FFF80438E828F83A3A3A3E0C0E074E2
:103A03000C1212EDD0E0F0126C08E0C0E0740D125D
:103A130012EDD0E0F074061212ED1256B470097470
:103A23000E1212ED74B98007740E1212ED7410F0B9
:103A3300740912106D1224EE7411026DB1E0850E3B
:103A430082850F83A3A3A322E01257A1E022E012F1
:103A530057A1A3A322852182852283EAF0A3EB1237
:103A630056BD2274F0120A3B74E1121093740412CF
:103A730012EDE9F074031212EDECF074021212ED80
:103A8300EDF08A0E8B0F742F1212ED123469AA0C0B
:103A9300FB1222E474011212EDE9F0AA0CAB0D1231
:103AA30022EA74011212EDE07003023D25852182A2
:103AB300852283E480158E828F83A3A3A3A3A3E02F
:103AC300D2E3F0852182852283E004126CF7F88526
:103AD3002182852283E0C3984003023D1C740112B6
:103AE30012EDE07003023D1C852182852283123D85
:103AF3002AE50C28F8E50D39F9E8240FFEE439FF2F
:103B03008E82F583A3A3A3A3A3E0A2E040B5750827
:103B130000750A08750B0074021212EDE06003755C
:103B230008207C087D007900740512106D121A4478
:103B33008E828F83E0603E90173EE06401701AE549
:103B430008D2E3F508750B10123D3A1212EDE8F0B6
:103B5300A3E9125B6574FF807643080C750A0C8E2B
:103B6300828F83A3123D4512718274051212ED7484
:103B7300FFF0A3805A74041212EDE06009E508D245
:103B8300E6F508750A0A8E828F83A3E064FE70034C
:103B9300A3E0F4703074121212ED7404126754F837
:103BA300741D1212EDE8124F0F741212106D1222CF
:103BB3000C7D007C00790074151212EDAA82AB8390
:103BC300121FEA800B123D3A1212EDE8F0A3E9F05E
:103BD30074071212EDE508F012427CC0E07409127A
:103BE30012EDD0E0F0740A1212ED7401F0740512B4
:103BF300106D1224B274111212EDE06003023CFA4C
:103C0300740D1212ED1257C48E828F83A3A3A3A344
:103C1300F0740D1212ED124EDDE50AF0A3E50BF080
:103C230074031212EDE0C0E0124E6ED0E0125E811A
:103C3300601190173EE0C0E0740D1212ED124EB801
:103C4300D0E0F0740D1212ED1243E8850C82850D5D
:103C530083A3A3A3A3A3123D33241C1264E3127111
:103C63009C123D35125E3339126C27C0E0124E555B
:103C7300D0E0126CECC0E0740D1212ED12499BD02F
:103C8300E01269EDC0E0740D1212ED124991D0E01B
:103C9300F0740D1212ED123D45123D33242A1264C5
:103CA300E3850E82850F83A3A3A3A3A3A3A3A3E00A
:103CB3001264DC12426BC0E012497DD0E0F0740D57
:103CC3001212ED1250A2850E82850F83126D02240B
:103CD30028F582E43B127180124274126D13120FA5
:103CE300E81261DDEA1264753B127EC0120FFF74A5
:103CF3000512106D1224B88E828F83A3A3A3A3A3EE
:103D0300E0D2E0F074111212EDE06003023AB974EC
:103D1300011212EDE014023AC57900AA0CAB0D12A0
:103D230023B6741F026DB1E075F007A4F8A9F02261
:103D3300A3A31250A6E8228E828F83A31243EC74AE
:103D43000522E0123D4DA3A3A322F8A3E0F9850EBB
:103D530082850F83A32274F0120A3B74E812109336
:103D6300E9852182852283F08A0E8B0F8A828B83D9
:103D7300A3A3A3A3A3A3A3A3E0F912230E8A088BEF
:103D830009EA4B7003023E36E50E1256371242948F
:103D930012422B852182852283E06003023E397C17
:103DA30004850E82850F83A3A3A3A3A3A3A3A3E0E8
:103DB300F9122314EE4F607B8E828F83A3A3A3A3F8
:103DC3001243E874071212ED12661A1243E87409DB
:103DD3001212ED124F3FC0E074111212EDD0E01237
:103DE30069CBA3A3A3A3A3A3A31243E8740F121243
:103DF300ED12718274121212EDE4126DA7C8241F22
:103E0300F582E438F5831261A8C413135403FC70DC
:103E1300027C048E828F83E0F97808120FEC742001
:103E230059FD744059F9740312106D1223AA7402D8
:103E3300120FFF026DAF7C08850E82850F83A3A34B
:103E4300A3A3A3A3A3A3E0F91223148B0BEA4B7040
:103E530003023DB7EE4F60DB852182852283E0F5C7
:103E63000C780C120FF0850882850983A3A3A3A302
:103E7300A3A3A3E0F50C780C120FF08A828B83A323
:103E8300A3A3E0FB8A82850B831279DF8A82850BE9
:103E930083E0FA8E828F83A3A3E0F9122C147402B9
:103EA300120FFF023DBB74F7120A3B74FA12109310
:103EB300E9FE780179017F00800379000F12521E19
:103EC300E0FCEFC39C5026EF75F007A4FC85F008D7
:103ED300AD08EA2CFCEB3DFD12480DE0A2E050DA00
:103EE300540C60D6E0A2E250D3780080CF8A828B54
:103EF30083A3A3A3A3A3A3E0703DE9A2E0400574B9
:103F0300016E70338A828B83A3A3A3A3A3A374013B
:103F13001241FDE0C0E074031212EDD0E012486CD0
:103F2300E0C0E074041212EDD0E0F074051212ED5B
:103F3300E81261471224EE7406024A8AC082C083E3
:103F430079011223B6025F8374F4120A3BEA4B90A1
:103F530019286019E4F08A088B09F50AF50B78082B
:103F6300120FE47A02123471120FFF800A7401F007
:103F73007A027B0012345E02355974F0120A3B74E4
:103F8300F312109374031212EDE4F0A3F09016AE43
:103F930012422B74011212EDE4F0A3124F1404F039
:103FA3009016E8E0A2E350030240701241F1740955
:103FB3001212ED1212D674091212ED78081212962B
:103FC3009016B0780812104D74051212ED7808128D
:103FD30012871240F474051212ED780812122A5057
:103FE300077A017B000240E174051212ED780C128E
:103FF3001296901918E0F509780C79081209CCA8E3
:104003000CA90D901919E0C398E4995003E08001BD
:10401300E8852182852283F074091212ED78081253
:104023001296C008C009C00AC00B74051212ED78BD
:104033000C1212961240F4780C79081209CCE4F5AC
:104043000AF50BD00FD00ED00DD00C780C790812D6
:1040530011259016B0780C12128780111240E612C7
:104063007182EEFAEFFB121AF8AE08AF09EE4F6059
:10407300658E828F831236E4C398502DEE2403F8A5
:10408300E43FF9E0FA88828983E0C39AF0602374FD
:10409300031212ED12454E74011212EDEEF0A3EF6E
:1040A300126635FEA3E0FF80C48E828F83A3A3A391
:1040B300E4F08E828F83127E7974011212ED125610
:1040C300B48E828F83A3A3A3A3609112660E1212F0
:1040D300ED1240ED808974031212ED1250A2740D9B
:1040E300026DB11243EC9016AE221261D3A3A3A3C7
:1040F30022901917127E81E4F50AF50B2274F0124F
:104103000A3B8A088B09890A780079009016AE1257
:10411300422BFBEE4B601E088E828F83A3A3A3A3C7
:1041230012506C601008E87001098E828F8312426E
:1041330027EA4F70E390191A1250A2C3E89AE99B39
:1041430040030241E47A061241E7A80CA90DEA49AB
:1041530070030241E48A828B83E508F0A3E5091228
:104163004206E50AF09019191252261241FDA3E402
:10417300F0A3F09016AE12506C600D8E828F83A365
:10418300A3A3A312718280179016AE1271829016A8
:10419300E8E0A2E340091241F19016B01212D69062
:1041A30016E8E0A2E3503A7A087B00901693E0F910
:1041B300121BCAEA4B4C4D7028901917E0F508A35F
:1041C300E085080CF50DE4F50EF50F780C120FE4FD
:1041D3007A087B00901693E0F9121BBE7404120F49
:1041E300FF026DB47B00121AF28A0C8B0D22121B94
:1041F300DCEAF8EBF9ECFAEDFB221242012212425F
:1042030006A322F08A828B83A3A322E508F0024A45
:104213008DF08E828F83A3A3A3A3A3A322125B1E7D
:10422300A3A3F022A3A3A3A3E0FEA3E0FF227F05A1
:10423300020DB6F582E43509F583E0F922EA12426C
:1042430045222410F582E422124253A3A3A3A322FE
:104253001243F08508828509832212426122F08588
:104263000A82850B83A3A322E50E2411124291E057
:1042730022E50E240E12429122E50E2410124291E1
:10428300E02212428922EE1242453FF58322F58253
:10429300E4350FF58322240FF50AE43509F50B788D
:1042A3000A22E0F9121A6E8A088B09EA4B2274F289
:1042B300120A3B890B8A088B098A828B831250A2CC
:1042C3001223DAEA4B600479B8806A1223E6E9F82C
:1042D30090323BE493F9E8C399400479B280567A6B
:1042E300151241E7AE0CAF0DEA4F7004791080450B
:1042F3008A828B83E4F0A3124206E50BF0750A0071
:104303007808120FE87C127D00EA2403126CBE12B7
:104313000FFF9016B41256B470089016B4800C12A6
:1043230043E88882898312433B70F4EEF0A3EFF0F5
:104333001223F8790002518E1250A6EA4B88828923
:104343008322C082C0839016B480048C828D831232
:1043530079E0EC4D60288C828D83A3A3E06960052E
:1043630074FF6970E68C828D83A3A3A3E06A700354
:10437300A3E06B70D6EC2403FAE43DFB80047A00DF
:104383007B00025F8374F7120A3BE9FD74FE6D70D4
:10439300047C0180027C009016B480096D70027C5D
:1043A30001888289831256B4601F88828983A3A3FC
:1043B300A3E06A7003A3E06B70E7ECA2E088828954
:1043C30083A3A3E050D6F9800279FE024A8DEEF969
:1043D300800CA3A3127E81EE227402120FFF7F02D0
:1043E300020DB6F5831243EC221243F022E0F8A348
:1043F300E0F9221243F08E828F8322120FFF7F0394
:10440300020DB6C082C08379009016B4800109E022
:10441300FAA3E08A82F583E582458370F1025F8324
:1044230074F6120A3BE4F508F5097808120FEC90CC
:10443300323BE49375F013A4A9F01245431271E0E3
:10444300120FFFE9FE74096E70031223F20243D1C7
:1044530074F6120A3B74FE1210938521828522831F
:10446300E4F0A3F0A821A922880889097808120F8B
:10447300EC7508027509007808120FEC126E5112E0
:104483000FFF0243DC74F5120A3B74EB12109385A1
:104493002182852283E4F0A3F09016B480748E8287
:1044A3008F83A3A3E0C0E074021212EDD0E0125B8D
:1044B30065A982AA8389088A09750A007808120FF8
:1044C300E87C127D0074061212ED1271A5120FFF23
:1044D3007402121065880889097808120FEC7508B0
:1044E300137509007808120FEC74041212ED1256BA
:1044F3005775F013A4F8AAF075F013E912453F12AB
:104503006E59120FFF85218285228312454E8E82BA
:104513008F8312422BEE4F7085A821A92288088928
:10452300097808120FEC7508027509007808120F54
:10453300EC126E51120FFF74150243FEA42AF9E820
:104543002402FCE439FD7A427B0022E02401F0A33B
:10455300E03400F02274F4120A3B74EB1210937EE1
:10456300007F00A821A922880889097808120FEC86
:104573007508028E097808120FEC7C007D007A42E0
:104583001271EC120FFFE9706C8E088056740212E0
:104593001065880A890B780A120FEC750A13750BDC
:1045A30000780A120FECE50875F013A4F8AAF07569
:1045B300F013E50912453F1271EE120FFFE9701B6C
:1045C30074031212EDAA82AB8374021212EDE0F9A6
:1045D3001223D4E970050EEE70010F0508E508708B
:1045E3000205098521828522831243E8C3E50898E1
:1045F300E509994098EEFAEFFB741502355674F607
:10460300120A3B8C828D83A3A312485AF0EA1264E8
:104613007B3BF583E0C0E0124817D0E0F0EA241DAD
:10462300F582E43B1243E61247FB124855F0A3F030
:10463300EA241FF582E43BF58312422BEC1247EE8A
:104643003DF583EEF0A3EFF01247F43BF5831248F8
:1046530025A3A3A3A3A3A3EEF0A3EF1260D6FE8C1E
:10466300828D8312486474035EFEC3940340030285
:1046730047E1EE600874026E60030247068C828D88
:1046830083E0540CFE740C6E7003024745E0A2E411
:10469300400D88828983E08C828D83A312487A74CB
:1046A300086E60030247451248057401F08A828B45
:1046B30083A3A3A3A3A3125B2B70148C828D83E02B
:1046C300440C12486CA3A3124825EEF0A3EFF08C20
:1046D300828D83E0A2E4402B88821248331248483B
:1046E300500109F582124833A3A3A3A3A3A3F0A304
:1046F300EF1248748C828D83A3A3A3F0E82403F8FC
:1047030050010988828983E0C0E0EC2411F582E43A
:104713003DF583D0E01248648C828D83E0A2E7509C
:104723007588828983E0FE8C828D8312487A74FCBB
:104733005E700C8C828D83A3E054036403701E02AD
:1047430047E1124805E4F0740C6E60030246B0883A
:10475300821248391248485001090246D28C828D90
:1047630083A3E05403603288828983E0C0E0EC12C3
:10477300481F3DF583D0E012487B8C828D83E05443
:10478300036402701488828983E0C0E012480DD06C
:10479300E012487B8003A3E4F0EC1256233D127130
:1047A30080EC2410FEE43DFFEA241DF582E43BF592
:1047B30083E0F5088E828F83E0C3982508F508F01F
:1047C300EA2417F8E43BF98882F583E0C39508C02F
:1047D300E01247FBD0E01260D6C39508500A124797
:1047E300FBE4F0124817E4F00243E12415F582E4F8
:1047F30022EA240DF582E422EC240DF582E43DF552
:104803008322EC1257DC3DF58322EC2414F582E479
:104813003DF58322EC1242453DF583222413F582B4
:10482300E422E0FEA3E0FF8C828D83A3A3A3A32253
:10483300124839A3A3228983E0F508A3E0FFE50822
:104843008C828D8322A3A3A3A3F0A3EFF0E8240219
:10485300F82212485AA322E4F08C828D83A3A3A3E7
:1048630022124882A882A98322124201A3A3A3A3EE
:1048730022124882A3E022A312488208A9832212AB
:1048830060DFA32274F4120A3B74F31210938A0AB2
:104893008B0BECFEEDFF8C82F583E0540CF508E006
:1048A300A2E75006E508D2E7F508E508D2E1F508E6
:1048B300125B2B7006E508D2E4F508E0A2E550068A
:1048C300E508D2E5F5087C087D007900AA21AB2232
:1048D300121A4474021212EDE508127186C0E074D4
:1048E300031212EDD0E0124F14E50AF0A3E50BF02A
:1048F30074051212ED1269F21212EDE0707774086A
:104903001212ED124E9A1260C838126A0DC0E0748A
:10491300081212ED12499BD0E01269EDC0E0740851
:104923001212ED124991D0E0F074081212ED1249FF
:1049330087E0124EC2124F431264DCEE2411125A66
:10494300F7C0E012497DD0E0F0EE2414125AF7C00C
:10495300E074081212ED124E9A2435F582E438F50C
:1049630083D0E0124EE7C0E074081212ED124E9E9F
:10497300D0E0126746740D023556E82432F582E41E
:1049830039F583221243F6A3A3A3A3A3A322124EB2
:10499300AE126BEC38F58322124EAE2426F582E478
:1049A30038F5832274F7120A3B7E008A828B83A335
:1049B300A3A3A3A3A3A3A3A3E064046003024A697C
:1049C3001257D4E06003024A691256363B1256B2BC
:1049D3007003024A6988828983E054036003024AB0
:1049E30069E81257DC39F583E0FA8C828D83A3A33F
:1049F300E0FBA3E0CB2411F582E43BF583E06A708E
:104A03006588828983A3A3A3A3A3A3A3A3A3124A11
:104A13006DE06A7003A3E06B704C88828983A3A363
:104A2300124A79E0FFA3E0CF2406125AF76A700313
:104A3300A3E06B703188828983A3A3E0F88C828D15
:104A430083A3A3E0F9A3E0F5838982A3A3E06860CD
:104A5300138C828D83A3A3A3E0F5838982E0540C96
:104A6300640470027E01EEF98020124A7122125012
:104A7300AA8C828D8322A3A3124A71A3A322740C4E
:104A83001212EDE0F9740D120FFF7F01020DB674DF
:104A9300F6120A3B74FC121093EAFEEBFFECFAEDFC
:104AA300FB8C82F583A3E0540360169016AA12567A
:104AB300B460597900EEFCEFFD1262D3120C8280D0
:104AC3004B852182852283EEF0A3EFF0740212124C
:104AD300ED124F09AC21AD227A107B2412263E8AB7
:104AE300088B09A808A909EA4960218A828B83A354
:104AF300A3A3A3A3A3A3A3A37406F07A0088828B22
:104B030083124E9A12649CE0F912259C74040243AA
:104B1300DE74F2120A3B74F3121093EAFEEBFF8A7F
:104B230082F583A3A3A3A3A3A3A3A3A3A3E0F50A4B
:104B3300901928E0700579BA024E5275080175097B
:104B430000750C00750D007C087D007900AA21AB6F
:104B530022121A4474051212ED7401124F1C5404EC
:104B6300601274021212EDE0D2E6124F1C54087068
:104B730003750803E05410600674404508F508E027
:104B83005408602274021212EDE044C0124F1C5408
:104B930020600A74031212EDE0D2E080087403125D
:104BA30012EDE0D2E1F0EE2415125AF7124E8270A4
:104BB30003740169700674084508F5088E828F83B3
:104BC300A3A3A3A3A3A3A3A3E070161226988521EE
:104BD300828522831264E974021212EDE0D2E2802C
:104BE30030640F701074021212ED124F24740445D6
:104BF30008F508807F8E828F83A3A3A3A3A3A3A317
:104C0300A3E064028E828F83700A1271B9E8F0A365
:104C1300E9F08060A3A3A3A3A3A3A3A3E064037009
:104C23000DAC21AD22EEFAEFFB12244680468E82B4
:104C33008F83A3A3A3A3A3A3A3A3E06401703590CD
:104C4300173EE0601074021212ED124F2475091022
:104C5300750AFF801874021212EDE0440C124F140F
:104C630074FDF0A374FFF074044508F5088E828F79
:104C730083123469EE2415125AF7A2E0503F7402EE
:104C83001212EDE0540C701B8E828F831250A2120D
:104C930020B6E9700579BB024E5274021212EDE0A0
:104CA300D2E5F0EE2415125AF7A2E0501074021266
:104CB30012EDE0540C64047004E0D2E5F0EE24112C
:104CC300125AF7C0E074041212EDD0E01269F41224
:104CD30012EDE06003024E4B74081212ED124EDD2A
:104CE300E508F0A3E509F0124E78E0C0E0124E6E3D
:104CF300D0E0F0124E5FE0C0E074081212ED124EE5
:104D03009A12481F38F583D0E0124F4364017011A3
:104D130090173EE0C0E074081212ED124EB8D0E0D6
:104D2300F074081212ED124ED8124E69FAE8241CE0
:104D3300F582E439F583EA124F0FEE2415FAE43FC6
:104D4300FB8A82F5831279E0E8125E3339F5831228
:104D53004F09EE241C125AF7C0E0124E55D0E01250
:104D63005F79124E82700374016970137408121212
:104D7300ED1257C4FAEE241D125AF7F912231A8EB4
:104D8300828F83A3A3A3A3A3A3A3A3A3E0C0E074DD
:104D9300081212ED12499BD0E0F074081212ED12C2
:104DA3004991E50AF074081212ED1256572428F5BA
:104DB30082E439F583E50CF0A3E50D124EEF124EB4
:104DC300C2125B701264DCEE124E69C0E0E8243359
:104DD300F582E439F583D0E0F0EE241B125AF7C0D4
:104DE300E074081212ED124E9ED0E0F0EE241A1277
:104DF3005AF7C0E074081212ED124E9A2432F5826B
:104E0300E438F583D0E0124EE7124E8E120FE8120B
:104E13006BF21279E0740B1212ED124E9A242F12D8
:104E23007EBC120FFFEE2415125AF7544060129005
:104E330016CA1256B4600AAA21AB221262D3120C0C
:104E430082AA21AB221224B8740C1212EDE0F902EB
:104E53005189E82420F582E439F58322EE2419F5FB
:104E630082E43FF58322126C01E022E82412F582EA
:104E7300E439F58322EE2418F582E43FF5832254C6
:104E830080F8A3E05401F974806822F508A3E0F5E3
:104E930009750A00780822124EAE22124EAE24344F
:104EA300F582E438F58322A3A3A3A3124EB222E032
:104EB300F8A3E0C822124EAE1247EE38F58322FA69
:104EC300A3E0FBE8242AF582E439F583EAF0A3EBB7
:104ED30022A3A3A3A31243ECEE2212565B12563B6A
:104EE30039F58322F0EE2413125B7822F0EE240DC1
:104EF300125B7822E0FC8A828B83E02CFCA3E034F3
:104F030000FD8A828B83ECF0A3EDF022F0A3E4F0A2
:104F130022F085218285228322F0EE2415125B780C
:104F230022E0D2E3F0124F2C228E828F831243F0C1
:104F3300852182852283E8F0A3E9F022E8F0A3E942
:104F430012662FE02274F7120A3B8A828B83A3E056
:104F5300640170047E6380027E648A828B83E060D6
:104F6300087905124F7C24F3FE9016E6E06007F9FA
:104F7300124F7C24F2FE024A69122560E9F8EEC35F
:104F8300982274F6120A3B74FE12109385218285CF
:104F930022831264E9E9FEECFAEDFB90048A1256CF
:104FA300B46032A821A922880889097808120FEC75
:104FB3007D01740E1212EDE0FCEEF990048A126486
:104FC300BD120C827402120FFFEA4B600479008059
:104FD3000679B2800279B60243DC74F7120A3BE920
:104FE300FE9016A01256B4601F74091212EDE0F57C
:104FF300087808120FF0EEF99016A01264BD120C97
:10500300827401120FFF800279B6024A8D74F7127F
:105013000A3B8908ECFEEDFF79B5E508245E6020C4
:1050230014600624F86034803D90048C12506C6048
:10503300351271FD120C828E828F831264E98024F3
:105043009016A21279E0EC4D601CEEFCEFFD901679
:10505300A21264BD120C82E9F9800B90169E1250C5
:1050630072121BF47900024A8D1250A6EA4B2212E7
:1050730079E4EEFAEFFB2274F7120A3BE9FE79B505
:1050830074AB6E700B90169E1250A2121BF4790033
:10509300024A8D8E828F83A3A3A3A3A3A3A3A312E8
:1050A30050A6221250AA22E0FAA3E0FB2274F112C6
:1050B3000A3BEAFEEBFF8C0A8D0B7508019016EE96
:1050C300E06E7003A3E06F700C12517DAA0AAB0B64
:1050D300121BF4805E12269EEE6A7002EF6B70095B
:1050E300AA0AAB0B1226A4804AAC0AAD0BEEFAEF68
:1050F300FB1221E8E9F50890191FE07036122B48DE
:10510300E97030E508702C9016BEE06E7003A3E0E2
:105113006F7020EE4F601C750CB6750D16750E0082
:10512300780C120FE87C087D00AA0AAB0B1271A958
:10513300120FFFA908027ADC74F2120A3BEAFEEBB3
:10514300FF8C088D09750A0112517DEEFAEFFB12EF
:105153001BEEE9640170119016EE1243E885088294
:10516300850983127182800EAC08AD09EEFAEFFB5C
:105173001221EEE9F50AA90A80111226928A0C8BF4
:105183000DAC0CAD0D22740D120FFF7F06020DB690
:1051930074F6120A3BEAFEEBFF7A0D7B00121AF259
:1051A300EA4B6062EE2424126E86F0EE2425126E22
:1051B30086A312524B126E8CA3A3126C1F1252269B
:1051C300F0EE12520C12523BE8F0A3E912526212B3
:1051D3005233127182EE125215126CE2A3A3A3A3EF
:1051E300F0EE2433125AF7C0E012521ED0E0126AD6
:1051F30011125233A3A3A3E8F0A3E912525AC0E059
:105203001257D4D0E0F00243E1242AF582E43FF5BB
:105213008322242EF582E43FF58322EA125C4D3B80
:10522300F5832212522A22E08A828B83A3A3A3222C
:10523300126D41A3A3A3A32212523F221243F08A69
:10524300828B83A3A3A3A322F012525022EE24261F
:10525300F582E43FF58322F0EE2432125B7822F0EC
:10526300EE242C125B782274F4120A3B74FE1210A3
:1052730093ECFEEDFFEC2416125AF764057010EC64
:105283002406FCE43FFD122440E97003025316ACEC
:1052930021AD22126F3B1220BC852182852283120D
:1052A30056B4606B8E828F83E064017058E875F0AA
:1052B30009A4F8AAF075F009E9A42AF9741628F8E4
:1052C300740439F9E8FAE9FB8882F5837808121245
:1052D30096EE1253B812122A402785218285228323
:1052E300124ED8125B0512531B7808121296908146
:1052F300FC78081211618A828B83780812128780E6
:105303000A79A28010EE240F12717C79008006794D
:10531300A1800279C8023554124F39EE126C0D2266
:1053230074F2120A3B8A0C8B0DECFEEDFFEC125B60
:1053330005E4F0A3F09081D87808121296EC12538A
:10534300B81210A96067EC240E125AFE703478B3B9
:105353009016E5E07028901717E064017020EC24A4
:1053630011125AF7F91225488B09A909EE1256377B
:105373003F1264E7EA4960047800800278A1880854
:10538300802EE060046402700A122452E9F508706A
:1053930007801DE064037010EEFCEFFDAA0CAB0D5B
:1053A3001220E0E9F50880087508A180037508A3B9
:1053B300A90802518E126C0D78082274F0120A3B70
:1053C30074F5121093EAFEEBFFEA240AFCE43F8C27
:1053D30082F583127E7D12564174031210758A8200
:1053E3008B831262DDE970030254A77401121075F6
:1053F300740312106D1220BC74011212ED1256B414
:1054030070030254A7E875F009A4F8AAF075F0092F
:10541300E9A42AF9741228FC740439FDE508240E62
:1054230012672EE4F0041212ED1243E8E508125657
:105433003735091271808C828D831212CAE50824D4
:105443001212672E1212D69081FC78081212968CD3
:10545300828D8378081211C08C828D83780C12128E
:10546300969082387808121296780C79081209CC33
:10547300E5084509450A450B702A74011212ED121D
:10548300565775F009A4F8AAF075F009E9A42AF9AA
:10549300741A28F582740439F5837401F07A007B59
:1054A300081256648E828F83A3A3A3A3A3A3A3A3EB
:1054B300A3A3E02406FCA3E03400FD8E828F8312B5
:1054C30062DD1269FF603EEE240A125629124EDD98
:1054D3007468124F0FE812562339F5837402F09063
:1054E30016D01212CA8C828D831264D61260C83C05
:1054F300F5831212D69081FC78081212969016D07A
:1055030078081211C012569F705D90169E12564F66
:10551300A3A3A3A3A3A3A3A3A3A31260FE121BEE9F
:10552300E970101260BC90169E1260CE700512696D
:10553300FF60348E828F83A3A3A3A3A3A3A3A3A3F8
:10554300A312564F1250A21220E6E960118E828FE9
:1055530083A3A3A3A3A3A312568BE4F0A3F08E8289
:105563008F83125671E4F012569F600302561E8E0B
:10557300828F83A3A3A3A3A3A3127E799016E5E04E
:105583006003025613901717E06401600302561379
:10559300750A3A750B00780A120FEC740212106543
:1055A300880A890B780A120FEC127478120FFFE93C
:1055B300705BE508240E12672E74011256B9C0E021
:1055C300E508241112672ED0E0F0E508240F1267D6
:1055D3002E743A124F0F9016CC1212CAE5082412F9
:1055E30012672E1212D69081FC780812129690162A
:1055F300CC78081211C09081FC780812129690168C
:10560300CC78081210A97008125660800312564114
:1056130012569F7006125FBF74A1F0740B026DB136
:10562300240EF582E422F8E43FF9E8FCE9FD8882E0
:10563300F58322EA12563B22240FF582E422E50881
:1056430012563B3509F583E4F0A3F0221279E48E78
:10565300828F832212565B221243F0E8227A007B68
:1056630002901576E0F9121A98228A828B83A3A3FB
:10567300A3A3A3A3A3A3A3A312567F22124EB224D0
:105683000EF582E438F58322A3A3A3A31256932233
:10569300124EB2240FF582E438F583228E828F8373
:1056A300A3A3A3A3A3A3124EAA240FF582E438F560
:1056B3008312565B49221256BD22F0852182852230
:1056C30083E02274F6120A3BEAFEEBFF7A237B00A7
:1056D300121AF2EE240AF508E43FF509850882124E
:1056E30064E77C237D007900121A448508828509CA
:1056F300831256B47003025787EEFAEFFB12245E4F
:1057030012569F60748E828F831257BA64018E8201
:105713008F83A3A3A3A3A3A370071257B0740E8010
:10572300211256B470101269FF700B8E828F83A3FF
:10573300A3E0A2E050071257A6740D80051257A6E6
:105743007405126A1154036401700712578E7405AD
:10575300800B9016E6E0C0E012578ED0E01257C9D6
:10576300F5838882125B24850882850983124E9A09
:1057730012647B38F583E9800E85088285098312DC
:10578300656080031264A3F00243E18E828F83A3DA
:10579300A3A3A3A3A3A3A3A3A31257A022E01264CA
:1057A300C2A3228E828F83A3A3A3A3A3A3124EAA71
:1057B30012648138F58322A3A3A3A3A3A3A3A3A362
:1057C300A312567FE0221257CD22126F50F8A3E0A6
:1057D30022EA1257DC3BF58322240CF582E422747F
:1057E300F1120A3B74E41210938A0C8B0D8C088D12
:1057F300097A237B00121AF28A0A8B0BAE0AAF0BCB
:10580300EA4F7003025ADF126487E5082415125B1E
:1058130010687003A3E0698E828F83700474028022
:10582300027401F0E508240DF8E43509F98882F5DE
:1058330083E0FAC3E49AFA95E0FB125B0C2AFAA31D
:10584300E03BFB8E828F83A3A3A3A31260E58E822A
:105853008F83A3A3F0EE2420F582E43FF583E4F0E5
:10586300EE2421F582E43FF583E4F0EEFAEFFB1238
:105873002512850882850983125B2B70098E828F1E
:1058830083A3740580069016E6125B19F0EE2417C5
:10589300F50AE43FF50B8E828F83125B24E9850AB8
:1058A30082850B83F0EE2416F8E43FF9E508240E15
:1058B300FAE43509FB88828983124EF7E508241040
:1058C300FAE43509FB850A82850B83E0FC8882892B
:1058D30083E0F88A828B83E0C398C39CF8125B65EC
:1058E300F0EEFCEFFDAA0CAB0D122458E9F50B8E7C
:1058F300828F83E0640270061260BC125AE9E50BE2
:105903006003025AD6750C00750D0090191FE064F0
:10591300016005E06402703F125AFB6008EE242127
:10592300125AFE70328E828F83A3A3A31264A9122C
:105933005B31EE2416125AF7125B5AFAE439FB1262
:1059430041E9EA4B6011126D0B120FE8125B3FAA9B
:105953000C1271A9120FFFEEFAEFFB12251EE9F5E7
:105963000B90191FE064016008E064026003025AAF
:10597300C9E97003025AC9E50C450D7003025AD6F2
:105983008003850E0B125AFB600BEE2421125AFE84
:105993006003025ACF850B0E850C08850D09750A25
:1059A300007808120FE8125B3F8E828F83A3A3A3B4
:1059B300A3127EC2120FFFEE2420125AF7600D12BB
:1059C3005B047468124F0FEE24208015EE2421121D
:1059D3005AF76015125B047403F0A37401F0EE240C
:1059E30021F582E43FF583E4F0EEFAEFFB12251E86
:1059F300E9F50B70907C137D007900740912106D2A
:105A0300121A44741A1212ED7401125B70646870F6
:105A130002A3E0704F8E828F8312568BE064056081
:105A2300030259857C0879FF8E828F83A3A3A3A3E6
:105A3300E0242A126101121ACEE970030259857C0F
:105A4300087D0079FF740112106D121A447401125B
:105A530010757A007B0079AB12243A74191212ED97
:105A630074FC8015125B04E064037004A3E064011A
:105A7300700874191212ED74FFF0E4F508F5097853
:105A830008120FEC740212107574131212EDAA822D
:105A9300AB831265E6120FFF852182852283E060C6
:105AA3002B7409121065880889097808120FEC75A0
:105AB30008137509007808120FEC7C007D00126E44
:105AC30059120FFF8006E50C450D6007AA0CAB0DBC
:105AD300121AF8EEFAEFFB121AF88003750B10A9ED
:105AE3000B741C027AD9EE2406FAE43FFB121BF472
:105AF30022EE240C125B7822EE2420125B786401E0
:105B030022EE12563B3FF58322E508240EF582E48C
:105B13003509F583E022125B1EA322E08E828F8378
:105B230022A3E0F912256022E05403640122125BF0
